{
  "_format": "hh-sol-artifact-1",
  "contractName": "Raider",
  "sourceName": "contracts/Raider.sol",
  "abi": [
    {
      "inputs": [],
      "stateMutability": "nonpayable",
      "type": "constructor"
    },
    {
      "anonymous": false,
      "inputs": [
        {
          "indexed": true,
          "internalType": "address",
          "name": "owner",
          "type": "address"
        },
        {
          "indexed": true,
          "internalType": "address",
          "name": "approved",
          "type": "address"
        },
        {
          "indexed": true,
          "internalType": "uint256",
          "name": "tokenId",
          "type": "uint256"
        }
      ],
      "name": "Approval",
      "type": "event"
    },
    {
      "anonymous": false,
      "inputs": [
        {
          "indexed": true,
          "internalType": "address",
          "name": "owner",
          "type": "address"
        },
        {
          "indexed": true,
          "internalType": "address",
          "name": "operator",
          "type": "address"
        },
        {
          "indexed": false,
          "internalType": "bool",
          "name": "approved",
          "type": "bool"
        }
      ],
      "name": "ApprovalForAll",
      "type": "event"
    },
    {
      "anonymous": false,
      "inputs": [
        {
          "indexed": true,
          "internalType": "address",
          "name": "previousOwner",
          "type": "address"
        },
        {
          "indexed": true,
          "internalType": "address",
          "name": "newOwner",
          "type": "address"
        }
      ],
      "name": "OwnershipTransferred",
      "type": "event"
    },
    {
      "anonymous": false,
      "inputs": [
        {
          "indexed": true,
          "internalType": "address",
          "name": "from",
          "type": "address"
        },
        {
          "indexed": true,
          "internalType": "address",
          "name": "to",
          "type": "address"
        },
        {
          "indexed": true,
          "internalType": "uint256",
          "name": "tokenId",
          "type": "uint256"
        }
      ],
      "name": "Transfer",
      "type": "event"
    },
    {
      "inputs": [
        {
          "internalType": "uint256",
          "name": "",
          "type": "uint256"
        }
      ],
      "name": "Raiders",
      "outputs": [
        {
          "internalType": "address",
          "name": "_address",
          "type": "address"
        },
        {
          "internalType": "uint256",
          "name": "raider_id",
          "type": "uint256"
        },
        {
          "internalType": "string",
          "name": "primary_skill",
          "type": "string"
        },
        {
          "internalType": "string",
          "name": "secondary_skill",
          "type": "string"
        }
      ],
      "stateMutability": "view",
      "type": "function"
    },
    {
      "inputs": [
        {
          "internalType": "address",
          "name": "to",
          "type": "address"
        },
        {
          "internalType": "uint256",
          "name": "tokenId",
          "type": "uint256"
        }
      ],
      "name": "approve",
      "outputs": [],
      "stateMutability": "nonpayable",
      "type": "function"
    },
    {
      "inputs": [
        {
          "internalType": "uint256",
          "name": "discord_id",
          "type": "uint256"
        },
        {
          "internalType": "address",
          "name": "_address",
          "type": "address"
        }
      ],
      "name": "authenticate",
      "outputs": [],
      "stateMutability": "nonpayable",
      "type": "function"
    },
    {
      "inputs": [
        {
          "internalType": "address",
          "name": "owner",
          "type": "address"
        }
      ],
      "name": "balanceOf",
      "outputs": [
        {
          "internalType": "uint256",
          "name": "",
          "type": "uint256"
        }
      ],
      "stateMutability": "view",
      "type": "function"
    },
    {
      "inputs": [
        {
          "internalType": "uint256",
          "name": "nft_id",
          "type": "uint256"
        },
        {
          "internalType": "string",
          "name": "new_uri",
          "type": "string"
        }
      ],
      "name": "changeAvatar",
      "outputs": [],
      "stateMutability": "nonpayable",
      "type": "function"
    },
    {
      "inputs": [
        {
          "internalType": "uint256",
          "name": "discord_id",
          "type": "uint256"
        },
        {
          "internalType": "string",
          "name": "primary",
          "type": "string"
        },
        {
          "internalType": "string",
          "name": "secondary",
          "type": "string"
        }
      ],
      "name": "createProfile",
      "outputs": [],
      "stateMutability": "nonpayable",
      "type": "function"
    },
    {
      "inputs": [
        {
          "internalType": "uint256",
          "name": "tokenId",
          "type": "uint256"
        }
      ],
      "name": "getApproved",
      "outputs": [
        {
          "internalType": "address",
          "name": "",
          "type": "address"
        }
      ],
      "stateMutability": "view",
      "type": "function"
    },
    {
      "inputs": [],
      "name": "id",
      "outputs": [
        {
          "internalType": "uint256",
          "name": "",
          "type": "uint256"
        }
      ],
      "stateMutability": "view",
      "type": "function"
    },
    {
      "inputs": [
        {
          "internalType": "address",
          "name": "owner",
          "type": "address"
        },
        {
          "internalType": "address",
          "name": "operator",
          "type": "address"
        }
      ],
      "name": "isApprovedForAll",
      "outputs": [
        {
          "internalType": "bool",
          "name": "",
          "type": "bool"
        }
      ],
      "stateMutability": "view",
      "type": "function"
    },
    {
      "inputs": [
        {
          "internalType": "uint256",
          "name": "discord_id",
          "type": "uint256"
        },
        {
          "internalType": "string",
          "name": "uri",
          "type": "string"
        }
      ],
      "name": "mintRaider",
      "outputs": [],
      "stateMutability": "nonpayable",
      "type": "function"
    },
    {
      "inputs": [],
      "name": "name",
      "outputs": [
        {
          "internalType": "string",
          "name": "",
          "type": "string"
        }
      ],
      "stateMutability": "view",
      "type": "function"
    },
    {
      "inputs": [],
      "name": "owner",
      "outputs": [
        {
          "internalType": "address",
          "name": "",
          "type": "address"
        }
      ],
      "stateMutability": "view",
      "type": "function"
    },
    {
      "inputs": [
        {
          "internalType": "uint256",
          "name": "tokenId",
          "type": "uint256"
        }
      ],
      "name": "ownerOf",
      "outputs": [
        {
          "internalType": "address",
          "name": "",
          "type": "address"
        }
      ],
      "stateMutability": "view",
      "type": "function"
    },
    {
      "inputs": [],
      "name": "renounceOwnership",
      "outputs": [],
      "stateMutability": "nonpayable",
      "type": "function"
    },
    {
      "inputs": [
        {
          "internalType": "address",
          "name": "from",
          "type": "address"
        },
        {
          "internalType": "address",
          "name": "to",
          "type": "address"
        },
        {
          "internalType": "uint256",
          "name": "tokenId",
          "type": "uint256"
        }
      ],
      "name": "safeTransferFrom",
      "outputs": [],
      "stateMutability": "nonpayable",
      "type": "function"
    },
    {
      "inputs": [
        {
          "internalType": "address",
          "name": "from",
          "type": "address"
        },
        {
          "internalType": "address",
          "name": "to",
          "type": "address"
        },
        {
          "internalType": "uint256",
          "name": "tokenId",
          "type": "uint256"
        },
        {
          "internalType": "bytes",
          "name": "_data",
          "type": "bytes"
        }
      ],
      "name": "safeTransferFrom",
      "outputs": [],
      "stateMutability": "nonpayable",
      "type": "function"
    },
    {
      "inputs": [
        {
          "internalType": "address",
          "name": "operator",
          "type": "address"
        },
        {
          "internalType": "bool",
          "name": "approved",
          "type": "bool"
        }
      ],
      "name": "setApprovalForAll",
      "outputs": [],
      "stateMutability": "nonpayable",
      "type": "function"
    },
    {
      "inputs": [
        {
          "internalType": "bytes4",
          "name": "interfaceId",
          "type": "bytes4"
        }
      ],
      "name": "supportsInterface",
      "outputs": [
        {
          "internalType": "bool",
          "name": "",
          "type": "bool"
        }
      ],
      "stateMutability": "view",
      "type": "function"
    },
    {
      "inputs": [],
      "name": "symbol",
      "outputs": [
        {
          "internalType": "string",
          "name": "",
          "type": "string"
        }
      ],
      "stateMutability": "view",
      "type": "function"
    },
    {
      "inputs": [
        {
          "internalType": "uint256",
          "name": "tokenId",
          "type": "uint256"
        }
      ],
      "name": "tokenURI",
      "outputs": [
        {
          "internalType": "string",
          "name": "",
          "type": "string"
        }
      ],
      "stateMutability": "view",
      "type": "function"
    },
    {
      "inputs": [
        {
          "internalType": "address",
          "name": "from",
          "type": "address"
        },
        {
          "internalType": "address",
          "name": "to",
          "type": "address"
        },
        {
          "internalType": "uint256",
          "name": "tokenId",
          "type": "uint256"
        }
      ],
      "name": "transferFrom",
      "outputs": [],
      "stateMutability": "nonpayable",
      "type": "function"
    },
    {
      "inputs": [
        {
          "internalType": "address",
          "name": "newOwner",
          "type": "address"
        }
      ],
      "name": "transferOwnership",
      "outputs": [],
      "stateMutability": "nonpayable",
      "type": "function"
    }
  ],
  "bytecode": "0x608060405260016009553480156200001657600080fd5b506040518060400160405280601481526020017f526169646572204775696c6420417661746172730000000000000000000000008152506040518060400160405280600681526020017f524149444552000000000000000000000000000000000000000000000000000081525081600090805190602001906200009b929190620001ab565b508060019080519060200190620000b4929190620001ab565b505050620000d7620000cb620000dd60201b60201c565b620000e560201b60201c565b620002c0565b600033905090565b6000600760009054906101000a900473ffffffffffffffffffffffffffffffffffffffff16905081600760006101000a81548173ffffffffffffffffffffffffffffffffffffffff021916908373ffffffffffffffffffffffffffffffffffffffff1602179055508173ffffffffffffffffffffffffffffffffffffffff168173ffffffffffffffffffffffffffffffffffffffff167f8be0079c531659141344cd1fd0a4f28419497f9722a3daafe3b4186f6b6457e060405160405180910390a35050565b828054620001b9906200025b565b90600052602060002090601f016020900481019282620001dd576000855562000229565b82601f10620001f857805160ff191683800117855562000229565b8280016001018555821562000229579182015b82811115620002285782518255916020019190600101906200020b565b5b5090506200023891906200023c565b5090565b5b80821115620002575760008160009055506001016200023d565b5090565b600060028204905060018216806200027457607f821691505b602082108114156200028b576200028a62000291565b5b50919050565b7f4e487b7100000000000000000000000000000000000000000000000000000000600052602260045260246000fd5b61377680620002d06000396000f3fe608060405234801561001057600080fd5b50600436106101425760003560e01c80638da5cb5b116100b8578063c87b56dd1161007c578063c87b56dd1461034d578063d776f01e1461037d578063dd045d02146103b0578063e985e9c5146103cc578063f2fde38b146103fc578063fde89dad1461041857610142565b80638da5cb5b146102bb57806395d89b41146102d9578063a22cb465146102f7578063af640d0f14610313578063b88d4fde1461033157610142565b806342842e0e1161010a57806342842e0e146101fd57806355a6513814610219578063586ffae8146102355780636352211e1461025157806370a0823114610281578063715018a6146102b157610142565b806301ffc9a71461014757806306fdde0314610177578063081812fc14610195578063095ea7b3146101c557806323b872dd146101e1575b600080fd5b610161600480360381019061015c9190612684565b610434565b60405161016e919061309e565b60405180910390f35b61017f610516565b60405161018c91906130b9565b60405180910390f35b6101af60048036038101906101aa91906126d6565b6105a8565b6040516101bc9190612fe4565b60405180910390f35b6101df60048036038101906101da9190612648565b61062d565b005b6101fb60048036038101906101f69190612542565b610745565b005b61021760048036038101906102129190612542565b6107a5565b005b610233600480360381019061022e919061273b565b6107c5565b005b61024f600480360381019061024a91906126ff565b61090d565b005b61026b600480360381019061026691906126d6565b6109cb565b6040516102789190612fe4565b60405180910390f35b61029b600480360381019061029691906124dd565b610a7d565b6040516102a8919061333b565b60405180910390f35b6102b9610b35565b005b6102c3610bbd565b6040516102d09190612fe4565b60405180910390f35b6102e1610be7565b6040516102ee91906130b9565b60405180910390f35b610311600480360381019061030c919061260c565b610c79565b005b61031b610c8f565b604051610328919061333b565b60405180910390f35b61034b60048036038101906103469190612591565b610c95565b005b610367600480360381019061036291906126d6565b610cf7565b60405161037491906130b9565b60405180910390f35b610397600480360381019061039291906126d6565b610e49565b6040516103a7949392919061304b565b60405180910390f35b6103ca60048036038101906103c5919061273b565b610fa9565b005b6103e660048036038101906103e19190612506565b611078565b6040516103f3919061309e565b60405180910390f35b610416600480360381019061041191906124dd565b61110c565b005b610432600480360381019061042d9190612793565b611204565b005b60007f80ac58cd000000000000000000000000000000000000000000000000000000007bffffffffffffffffffffffffffffffffffffffffffffffffffffffff1916827bffffffffffffffffffffffffffffffffffffffffffffffffffffffff191614806104ff57507f5b5e139f000000000000000000000000000000000000000000000000000000007bffffffffffffffffffffffffffffffffffffffffffffffffffffffff1916827bffffffffffffffffffffffffffffffffffffffffffffffffffffffff1916145b8061050f575061050e82611406565b5b9050919050565b6060600080546105259061356b565b80601f01602080910402602001604051908101604052809291908181526020018280546105519061356b565b801561059e5780601f106105735761010080835404028352916020019161059e565b820191906000526020600020905b81548152906001019060200180831161058157829003601f168201915b5050505050905090565b60006105b382611470565b6105f2576040517f08c379a00000000000000000000000000000000000000000000000000000000081526004016105e99061327b565b60405180910390fd5b6004600083815260200190815260200160002060009054906101000a900473ffffffffffffffffffffffffffffffffffffffff169050919050565b6000610638826109cb565b90508073ffffffffffffffffffffffffffffffffffffffff168373ffffffffffffffffffffffffffffffffffffffff1614156106a9576040517f08c379a00000000000000000000000000000000000000000000000000000000081526004016106a0906132fb565b60405180910390fd5b8073ffffffffffffffffffffffffffffffffffffffff166106c86114dc565b73ffffffffffffffffffffffffffffffffffffffff1614806106f757506106f6816106f16114dc565b611078565b5b610736576040517f08c379a000000000000000000000000000000000000000000000000000000000815260040161072d9061319b565b60405180910390fd5b61074083836114e4565b505050565b6107566107506114dc565b8261159d565b610795576040517f08c379a000000000000000000000000000000000000000000000000000000000815260040161078c9061331b565b60405180910390fd5b6107a083838361167b565b505050565b6107c083838360405180602001604052806000815250610c95565b505050565b6107cd6114dc565b73ffffffffffffffffffffffffffffffffffffffff166107eb610bbd565b73ffffffffffffffffffffffffffffffffffffffff1614610841576040517f08c379a00000000000000000000000000000000000000000000000000000000081526004016108389061329b565b60405180910390fd5b60095460086000858152602001908152602001600020600101819055506108a06008600085815260200190815260200160002060000160009054906101000a900473ffffffffffffffffffffffffffffffffffffffff166009546118d7565b6108f060095483838080601f016020809104026020016040519081016040528093929190818152602001838380828437600081840152601f19601f82011690508083019250505050505050611aa5565b600960008154809291906109039061359d565b9190505550505050565b60006008600084815260200190815260200160002060020180546109309061356b565b905011610972576040517f08c379a0000000000000000000000000000000000000000000000000000000008152600401610969906131fb565b60405180910390fd5b806008600084815260200190815260200160002060000160006101000a81548173ffffffffffffffffffffffffffffffffffffffff021916908373ffffffffffffffffffffffffffffffffffffffff1602179055505050565b6000806002600084815260200190815260200160002060009054906101000a900473ffffffffffffffffffffffffffffffffffffffff169050600073ffffffffffffffffffffffffffffffffffffffff168173ffffffffffffffffffffffffffffffffffffffff161415610a74576040517f08c379a0000000000000000000000000000000000000000000000000000000008152600401610a6b906131db565b60405180910390fd5b80915050919050565b60008073ffffffffffffffffffffffffffffffffffffffff168273ffffffffffffffffffffffffffffffffffffffff161415610aee576040517f08c379a0000000000000000000000000000000000000000000000000000000008152600401610ae5906131bb565b60405180910390fd5b600360008373ffffffffffffffffffffffffffffffffffffffff1673ffffffffffffffffffffffffffffffffffffffff168152602001908152602001600020549050919050565b610b3d6114dc565b73ffffffffffffffffffffffffffffffffffffffff16610b5b610bbd565b73ffffffffffffffffffffffffffffffffffffffff1614610bb1576040517f08c379a0000000000000000000000000000000000000000000000000000000008152600401610ba89061329b565b60405180910390fd5b610bbb6000611b19565b565b6000600760009054906101000a900473ffffffffffffffffffffffffffffffffffffffff16905090565b606060018054610bf69061356b565b80601f0160208091040260200160405190810160405280929190818152602001828054610c229061356b565b8015610c6f5780601f10610c4457610100808354040283529160200191610c6f565b820191906000526020600020905b815481529060010190602001808311610c5257829003601f168201915b5050505050905090565b610c8b610c846114dc565b8383611bdf565b5050565b60095481565b610ca6610ca06114dc565b8361159d565b610ce5576040517f08c379a0000000000000000000000000000000000000000000000000000000008152600401610cdc9061331b565b60405180910390fd5b610cf184848484611d4c565b50505050565b6060610d0282611470565b610d41576040517f08c379a0000000000000000000000000000000000000000000000000000000008152600401610d389061325b565b60405180910390fd5b6000600660008481526020019081526020016000208054610d619061356b565b80601f0160208091040260200160405190810160405280929190818152602001828054610d8d9061356b565b8015610dda5780601f10610daf57610100808354040283529160200191610dda565b820191906000526020600020905b815481529060010190602001808311610dbd57829003601f168201915b505050505090506000610deb611da8565b9050600081511415610e01578192505050610e44565b600082511115610e36578082604051602001610e1e929190612fc0565b60405160208183030381529060405292505050610e44565b610e3f84611dbf565b925050505b919050565b60086020528060005260406000206000915090508060000160009054906101000a900473ffffffffffffffffffffffffffffffffffffffff1690806001015490806002018054610e989061356b565b80601f0160208091040260200160405190810160405280929190818152602001828054610ec49061356b565b8015610f115780601f10610ee657610100808354040283529160200191610f11565b820191906000526020600020905b815481529060010190602001808311610ef457829003601f168201915b505050505090806003018054610f269061356b565b80601f0160208091040260200160405190810160405280929190818152602001828054610f529061356b565b8015610f9f5780601f10610f7457610100808354040283529160200191610f9f565b820191906000526020600020905b815481529060010190602001808311610f8257829003601f168201915b5050505050905084565b610fb16114dc565b73ffffffffffffffffffffffffffffffffffffffff16610fcf610bbd565b73ffffffffffffffffffffffffffffffffffffffff1614611025576040517f08c379a000000000000000000000000000000000000000000000000000000000815260040161101c9061329b565b60405180910390fd5b6110738383838080601f016020809104026020016040519081016040528093929190818152602001838380828437600081840152601f19601f82011690508083019250505050505050611aa5565b505050565b6000600560008473ffffffffffffffffffffffffffffffffffffffff1673ffffffffffffffffffffffffffffffffffffffff16815260200190815260200160002060008373ffffffffffffffffffffffffffffffffffffffff1673ffffffffffffffffffffffffffffffffffffffff16815260200190815260200160002060009054906101000a900460ff16905092915050565b6111146114dc565b73ffffffffffffffffffffffffffffffffffffffff16611132610bbd565b73ffffffffffffffffffffffffffffffffffffffff1614611188576040517f08c379a000000000000000000000000000000000000000000000000000000000815260040161117f9061329b565b60405180910390fd5b600073ffffffffffffffffffffffffffffffffffffffff168173ffffffffffffffffffffffffffffffffffffffff1614156111f8576040517f08c379a00000000000000000000000000000000000000000000000000000000081526004016111ef906130fb565b60405180910390fd5b61120181611b19565b50565b61120c6114dc565b73ffffffffffffffffffffffffffffffffffffffff1661122a610bbd565b73ffffffffffffffffffffffffffffffffffffffff1614611280576040517f08c379a00000000000000000000000000000000000000000000000000000000081526004016112779061329b565b60405180910390fd5b6112886121c2565b84848080601f016020809104026020016040519081016040528093929190818152602001838380828437600081840152601f19601f82011690508083019250505050505050816040018190525082828080601f016020809104026020016040519081016040528093929190818152602001838380828437600081840152601f19601f820116905080830192505050505050508160600181905250806008600088815260200190815260200160002060008201518160000160006101000a81548173ffffffffffffffffffffffffffffffffffffffff021916908373ffffffffffffffffffffffffffffffffffffffff1602179055506020820151816001015560408201518160020190805190602001906113a392919061220e565b5060608201518160030190805190602001906113c092919061220e565b5060808201518160040190805190602001906113dd929190612294565b5060a08201518160050190805190602001906113fa9291906122f4565b50905050505050505050565b60007f01ffc9a7000000000000000000000000000000000000000000000000000000007bffffffffffffffffffffffffffffffffffffffffffffffffffffffff1916827bffffffffffffffffffffffffffffffffffffffffffffffffffffffff1916149050919050565b60008073ffffffffffffffffffffffffffffffffffffffff166002600084815260200190815260200160002060009054906101000a900473ffffffffffffffffffffffffffffffffffffffff1673ffffffffffffffffffffffffffffffffffffffff1614159050919050565b600033905090565b816004600083815260200190815260200160002060006101000a81548173ffffffffffffffffffffffffffffffffffffffff021916908373ffffffffffffffffffffffffffffffffffffffff160217905550808273ffffffffffffffffffffffffffffffffffffffff16611557836109cb565b73ffffffffffffffffffffffffffffffffffffffff167f8c5be1e5ebec7d5bd14f71427d1e84f3dd0314c0f7b2291e5b200ac8c7c3b92560405160405180910390a45050565b60006115a882611470565b6115e7576040517f08c379a00000000000000000000000000000000000000000000000000000000081526004016115de9061317b565b60405180910390fd5b60006115f2836109cb565b90508073ffffffffffffffffffffffffffffffffffffffff168473ffffffffffffffffffffffffffffffffffffffff16148061166157508373ffffffffffffffffffffffffffffffffffffffff16611649846105a8565b73ffffffffffffffffffffffffffffffffffffffff16145b8061167257506116718185611078565b5b91505092915050565b8273ffffffffffffffffffffffffffffffffffffffff1661169b826109cb565b73ffffffffffffffffffffffffffffffffffffffff16146116f1576040517f08c379a00000000000000000000000000000000000000000000000000000000081526004016116e8906132bb565b60405180910390fd5b600073ffffffffffffffffffffffffffffffffffffffff168273ffffffffffffffffffffffffffffffffffffffff161415611761576040517f08c379a00000000000000000000000000000000000000000000000000000000081526004016117589061313b565b60405180910390fd5b61176c838383611e66565b6117776000826114e4565b6001600360008573ffffffffffffffffffffffffffffffffffffffff1673ffffffffffffffffffffffffffffffffffffffff16815260200190815260200160002060008282546117c79190613481565b925050819055506001600360008473ffffffffffffffffffffffffffffffffffffffff1673ffffffffffffffffffffffffffffffffffffffff168152602001908152602001600020600082825461181e91906133fa565b92505081905550816002600083815260200190815260200160002060006101000a81548173ffffffffffffffffffffffffffffffffffffffff021916908373ffffffffffffffffffffffffffffffffffffffff160217905550808273ffffffffffffffffffffffffffffffffffffffff168473ffffffffffffffffffffffffffffffffffffffff167fddf252ad1be2c89b69c2b068fc378daa952ba7f163c4a11628f55a4df523b3ef60405160405180910390a4505050565b600073ffffffffffffffffffffffffffffffffffffffff168273ffffffffffffffffffffffffffffffffffffffff161415611947576040517f08c379a000000000000000000000000000000000000000000000000000000000815260040161193e9061323b565b60405180910390fd5b61195081611470565b15611990576040517f08c379a00000000000000000000000000000000000000000000000000000000081526004016119879061311b565b60405180910390fd5b61199c60008383611e66565b6001600360008473ffffffffffffffffffffffffffffffffffffffff1673ffffffffffffffffffffffffffffffffffffffff16815260200190815260200160002060008282546119ec91906133fa565b92505081905550816002600083815260200190815260200160002060006101000a81548173ffffffffffffffffffffffffffffffffffffffff021916908373ffffffffffffffffffffffffffffffffffffffff160217905550808273ffffffffffffffffffffffffffffffffffffffff16600073ffffffffffffffffffffffffffffffffffffffff167fddf252ad1be2c89b69c2b068fc378daa952ba7f163c4a11628f55a4df523b3ef60405160405180910390a45050565b611aae82611470565b611aed576040517f08c379a0000000000000000000000000000000000000000000000000000000008152600401611ae49061321b565b60405180910390fd5b80600660008481526020019081526020016000209080519060200190611b1492919061220e565b505050565b6000600760009054906101000a900473ffffffffffffffffffffffffffffffffffffffff16905081600760006101000a81548173ffffffffffffffffffffffffffffffffffffffff021916908373ffffffffffffffffffffffffffffffffffffffff1602179055508173ffffffffffffffffffffffffffffffffffffffff168173ffffffffffffffffffffffffffffffffffffffff167f8be0079c531659141344cd1fd0a4f28419497f9722a3daafe3b4186f6b6457e060405160405180910390a35050565b8173ffffffffffffffffffffffffffffffffffffffff168373ffffffffffffffffffffffffffffffffffffffff161415611c4e576040517f08c379a0000000000000000000000000000000000000000000000000000000008152600401611c459061315b565b60405180910390fd5b80600560008573ffffffffffffffffffffffffffffffffffffffff1673ffffffffffffffffffffffffffffffffffffffff16815260200190815260200160002060008473ffffffffffffffffffffffffffffffffffffffff1673ffffffffffffffffffffffffffffffffffffffff16815260200190815260200160002060006101000a81548160ff0219169083151502179055508173ffffffffffffffffffffffffffffffffffffffff168373ffffffffffffffffffffffffffffffffffffffff167f17307eab39ab6107e8899845ad3d59bd9653f200f220920489ca2b5937696c3183604051611d3f919061309e565b60405180910390a3505050565b611d5784848461167b565b611d6384848484611e6b565b611da2576040517f08c379a0000000000000000000000000000000000000000000000000000000008152600401611d99906130db565b60405180910390fd5b50505050565b606060405180602001604052806000815250905090565b6060611dca82611470565b611e09576040517f08c379a0000000000000000000000000000000000000000000000000000000008152600401611e00906132db565b60405180910390fd5b6000611e13611da8565b90506000815111611e335760405180602001604052806000815250611e5e565b80611e3d84612002565b604051602001611e4e929190612fc0565b6040516020818303038152906040525b915050919050565b505050565b6000611e8c8473ffffffffffffffffffffffffffffffffffffffff166121af565b15611ff5578373ffffffffffffffffffffffffffffffffffffffff1663150b7a02611eb56114dc565b8786866040518563ffffffff1660e01b8152600401611ed79493929190612fff565b602060405180830381600087803b158015611ef157600080fd5b505af1925050508015611f2257506040513d601f19601f82011682018060405250810190611f1f91906126ad565b60015b611fa5573d8060008114611f52576040519150601f19603f3d011682016040523d82523d6000602084013e611f57565b606091505b50600081511415611f9d576040517f08c379a0000000000000000000000000000000000000000000000000000000008152600401611f94906130db565b60405180910390fd5b805181602001fd5b63150b7a0260e01b7bffffffffffffffffffffffffffffffffffffffffffffffffffffffff1916817bffffffffffffffffffffffffffffffffffffffffffffffffffffffff191614915050611ffa565b600190505b949350505050565b6060600082141561204a576040518060400160405280600181526020017f300000000000000000000000000000000000000000000000000000000000000081525090506121aa565b600082905060005b6000821461207c5780806120659061359d565b915050600a826120759190613450565b9150612052565b60008167ffffffffffffffff8111156120be577f4e487b7100000000000000000000000000000000000000000000000000000000600052604160045260246000fd5b6040519080825280601f01601f1916602001820160405280156120f05781602001600182028036833780820191505090505b5090505b600085146121a3576001826121099190613481565b9150600a8561211891906135e6565b603061212491906133fa565b60f81b818381518110612160577f4e487b7100000000000000000000000000000000000000000000000000000000600052603260045260246000fd5b60200101907effffffffffffffffffffffffffffffffffffffffffffffffffffffffffffff1916908160001a905350600a8561219c9190613450565b94506120f4565b8093505050505b919050565b600080823b905060008111915050919050565b6040518060c00160405280600073ffffffffffffffffffffffffffffffffffffffff16815260200160008152602001606081526020016060815260200160608152602001606081525090565b82805461221a9061356b565b90600052602060002090601f01602090048101928261223c5760008555612283565b82601f1061225557805160ff1916838001178555612283565b82800160010185558215612283579182015b82811115612282578251825591602001919060010190612267565b5b5090506122909190612341565b5090565b8280548282559060005260206000209081019282156122e3579160200282015b828111156122e25782518290805190602001906122d292919061220e565b50916020019190600101906122b4565b5b5090506122f0919061235e565b5090565b828054828255906000526020600020908101928215612330579160200282015b8281111561232f578251825591602001919060010190612314565b5b50905061233d9190612341565b5090565b5b8082111561235a576000816000905550600101612342565b5090565b5b8082111561237e57600081816123759190612382565b5060010161235f565b5090565b50805461238e9061356b565b6000825580601f106123a057506123bf565b601f0160209004906000526020600020908101906123be9190612341565b5b50565b60006123d56123d084613387565b613356565b9050828152602081018484840111156123ed57600080fd5b6123f8848285613529565b509392505050565b60008135905061240f816136e4565b92915050565b600081359050612424816136fb565b92915050565b60008135905061243981613712565b92915050565b60008151905061244e81613712565b92915050565b600082601f83011261246557600080fd5b81356124758482602086016123c2565b91505092915050565b60008083601f84011261249057600080fd5b8235905067ffffffffffffffff8111156124a957600080fd5b6020830191508360018202830111156124c157600080fd5b9250929050565b6000813590506124d781613729565b92915050565b6000602082840312156124ef57600080fd5b60006124fd84828501612400565b91505092915050565b6000806040838503121561251957600080fd5b600061252785828601612400565b925050602061253885828601612400565b9150509250929050565b60008060006060848603121561255757600080fd5b600061256586828701612400565b935050602061257686828701612400565b9250506040612587868287016124c8565b9150509250925092565b600080600080608085870312156125a757600080fd5b60006125b587828801612400565b94505060206125c687828801612400565b93505060406125d7878288016124c8565b925050606085013567ffffffffffffffff8111156125f457600080fd5b61260087828801612454565b91505092959194509250565b6000806040838503121561261f57600080fd5b600061262d85828601612400565b925050602061263e85828601612415565b9150509250929050565b6000806040838503121561265b57600080fd5b600061266985828601612400565b925050602061267a858286016124c8565b9150509250929050565b60006020828403121561269657600080fd5b60006126a48482850161242a565b91505092915050565b6000602082840312156126bf57600080fd5b60006126cd8482850161243f565b91505092915050565b6000602082840312156126e857600080fd5b60006126f6848285016124c8565b91505092915050565b6000806040838503121561271257600080fd5b6000612720858286016124c8565b925050602061273185828601612400565b9150509250929050565b60008060006040848603121561275057600080fd5b600061275e868287016124c8565b935050602084013567ffffffffffffffff81111561277b57600080fd5b6127878682870161247e565b92509250509250925092565b6000806000806000606086880312156127ab57600080fd5b60006127b9888289016124c8565b955050602086013567ffffffffffffffff8111156127d657600080fd5b6127e28882890161247e565b9450945050604086013567ffffffffffffffff81111561280157600080fd5b61280d8882890161247e565b92509250509295509295909350565b612825816134b5565b82525050565b612834816134c7565b82525050565b6000612845826133b7565b61284f81856133cd565b935061285f818560208601613538565b612868816136d3565b840191505092915050565b600061287e826133c2565b61288881856133de565b9350612898818560208601613538565b6128a1816136d3565b840191505092915050565b60006128b7826133c2565b6128c181856133ef565b93506128d1818560208601613538565b80840191505092915050565b60006128ea6032836133de565b91507f4552433732313a207472616e7366657220746f206e6f6e20455243373231526560008301527f63656976657220696d706c656d656e74657200000000000000000000000000006020830152604082019050919050565b60006129506026836133de565b91507f4f776e61626c653a206e6577206f776e657220697320746865207a65726f206160008301527f64647265737300000000000000000000000000000000000000000000000000006020830152604082019050919050565b60006129b6601c836133de565b91507f4552433732313a20746f6b656e20616c7265616479206d696e746564000000006000830152602082019050919050565b60006129f66024836133de565b91507f4552433732313a207472616e7366657220746f20746865207a65726f2061646460008301527f72657373000000000000000000000000000000000000000000000000000000006020830152604082019050919050565b6000612a5c6019836133de565b91507f4552433732313a20617070726f766520746f2063616c6c6572000000000000006000830152602082019050919050565b6000612a9c602c836133de565b91507f4552433732313a206f70657261746f7220717565727920666f72206e6f6e657860008301527f697374656e7420746f6b656e00000000000000000000000000000000000000006020830152604082019050919050565b6000612b026038836133de565b91507f4552433732313a20617070726f76652063616c6c6572206973206e6f74206f7760008301527f6e6572206e6f7220617070726f76656420666f7220616c6c00000000000000006020830152604082019050919050565b6000612b68602a836133de565b91507f4552433732313a2062616c616e636520717565727920666f7220746865207a6560008301527f726f2061646472657373000000000000000000000000000000000000000000006020830152604082019050919050565b6000612bce6029836133de565b91507f4552433732313a206f776e657220717565727920666f72206e6f6e657869737460008301527f656e7420746f6b656e00000000000000000000000000000000000000000000006020830152604082019050919050565b6000612c346013836133de565b91507f50726f66696c65204e6f742043726561746564000000000000000000000000006000830152602082019050919050565b6000612c74602e836133de565b91507f45524337323155524953746f726167653a2055524920736574206f66206e6f6e60008301527f6578697374656e7420746f6b656e0000000000000000000000000000000000006020830152604082019050919050565b6000612cda6020836133de565b91507f4552433732313a206d696e7420746f20746865207a65726f20616464726573736000830152602082019050919050565b6000612d1a6031836133de565b91507f45524337323155524953746f726167653a2055524920717565727920666f722060008301527f6e6f6e6578697374656e7420746f6b656e0000000000000000000000000000006020830152604082019050919050565b6000612d80602c836133de565b91507f4552433732313a20617070726f76656420717565727920666f72206e6f6e657860008301527f697374656e7420746f6b656e00000000000000000000000000000000000000006020830152604082019050919050565b6000612de66020836133de565b91507f4f776e61626c653a2063616c6c6572206973206e6f7420746865206f776e65726000830152602082019050919050565b6000612e266029836133de565b91507f4552433732313a207472616e73666572206f6620746f6b656e2074686174206960008301527f73206e6f74206f776e00000000000000000000000000000000000000000000006020830152604082019050919050565b6000612e8c602f836133de565b91507f4552433732314d657461646174613a2055524920717565727920666f72206e6f60008301527f6e6578697374656e7420746f6b656e00000000000000000000000000000000006020830152604082019050919050565b6000612ef26021836133de565b91507f4552433732313a20617070726f76616c20746f2063757272656e74206f776e6560008301527f72000000000000000000000000000000000000000000000000000000000000006020830152604082019050919050565b6000612f586031836133de565b91507f4552433732313a207472616e736665722063616c6c6572206973206e6f74206f60008301527f776e6572206e6f7220617070726f7665640000000000000000000000000000006020830152604082019050919050565b612fba8161351f565b82525050565b6000612fcc82856128ac565b9150612fd882846128ac565b91508190509392505050565b6000602082019050612ff9600083018461281c565b92915050565b6000608082019050613014600083018761281c565b613021602083018661281c565b61302e6040830185612fb1565b8181036060830152613040818461283a565b905095945050505050565b6000608082019050613060600083018761281c565b61306d6020830186612fb1565b818103604083015261307f8185612873565b905081810360608301526130938184612873565b905095945050505050565b60006020820190506130b3600083018461282b565b92915050565b600060208201905081810360008301526130d38184612873565b905092915050565b600060208201905081810360008301526130f4816128dd565b9050919050565b6000602082019050818103600083015261311481612943565b9050919050565b60006020820190508181036000830152613134816129a9565b9050919050565b60006020820190508181036000830152613154816129e9565b9050919050565b6000602082019050818103600083015261317481612a4f565b9050919050565b6000602082019050818103600083015261319481612a8f565b9050919050565b600060208201905081810360008301526131b481612af5565b9050919050565b600060208201905081810360008301526131d481612b5b565b9050919050565b600060208201905081810360008301526131f481612bc1565b9050919050565b6000602082019050818103600083015261321481612c27565b9050919050565b6000602082019050818103600083015261323481612c67565b9050919050565b6000602082019050818103600083015261325481612ccd565b9050919050565b6000602082019050818103600083015261327481612d0d565b9050919050565b6000602082019050818103600083015261329481612d73565b9050919050565b600060208201905081810360008301526132b481612dd9565b9050919050565b600060208201905081810360008301526132d481612e19565b9050919050565b600060208201905081810360008301526132f481612e7f565b9050919050565b6000602082019050818103600083015261331481612ee5565b9050919050565b6000602082019050818103600083015261333481612f4b565b9050919050565b60006020820190506133506000830184612fb1565b92915050565b6000604051905081810181811067ffffffffffffffff8211171561337d5761337c6136a4565b5b8060405250919050565b600067ffffffffffffffff8211156133a2576133a16136a4565b5b601f19601f8301169050602081019050919050565b600081519050919050565b600081519050919050565b600082825260208201905092915050565b600082825260208201905092915050565b600081905092915050565b60006134058261351f565b91506134108361351f565b9250827fffffffffffffffffffffffffffffffffffffffffffffffffffffffffffffffff0382111561344557613444613617565b5b828201905092915050565b600061345b8261351f565b91506134668361351f565b92508261347657613475613646565b5b828204905092915050565b600061348c8261351f565b91506134978361351f565b9250828210156134aa576134a9613617565b5b828203905092915050565b60006134c0826134ff565b9050919050565b60008115159050919050565b60007fffffffff0000000000000000000000000000000000000000000000000000000082169050919050565b600073ffffffffffffffffffffffffffffffffffffffff82169050919050565b6000819050919050565b82818337600083830152505050565b60005b8381101561355657808201518184015260208101905061353b565b83811115613565576000848401525b50505050565b6000600282049050600182168061358357607f821691505b6020821081141561359757613596613675565b5b50919050565b60006135a88261351f565b91507fffffffffffffffffffffffffffffffffffffffffffffffffffffffffffffffff8214156135db576135da613617565b5b600182019050919050565b60006135f18261351f565b91506135fc8361351f565b92508261360c5761360b613646565b5b828206905092915050565b7f4e487b7100000000000000000000000000000000000000000000000000000000600052601160045260246000fd5b7f4e487b7100000000000000000000000000000000000000000000000000000000600052601260045260246000fd5b7f4e487b7100000000000000000000000000000000000000000000000000000000600052602260045260246000fd5b7f4e487b7100000000000000000000000000000000000000000000000000000000600052604160045260246000fd5b6000601f19601f8301169050919050565b6136ed816134b5565b81146136f857600080fd5b50565b613704816134c7565b811461370f57600080fd5b50565b61371b816134d3565b811461372657600080fd5b50565b6137328161351f565b811461373d57600080fd5b5056fea2646970667358221220445057b966d718b924174f88d66d07f5565beae9eee3cfc82394e3999ab09adc64736f6c63430008000033",
  "linkReferences": {},
  "deployedLinkReferences": {}
}